{
  "_format": "hh-sol-artifact-1",
  "contractName": "MakeMakesickoNFT",
  "sourceName": "contracts/MakesickoNFT.sol",
  "abi": [
    {
      "inputs": [],
      "stateMutability": "nonpayable",
      "type": "constructor"
    },
    {
      "anonymous": false,
      "inputs": [
        {
          "indexed": true,
          "internalType": "address",
          "name": "owner",
          "type": "address"
        },
        {
          "indexed": true,
          "internalType": "address",
          "name": "approved",
          "type": "address"
        },
        {
          "indexed": true,
          "internalType": "uint256",
          "name": "tokenId",
          "type": "uint256"
        }
      ],
      "name": "Approval",
      "type": "event"
    },
    {
      "anonymous": false,
      "inputs": [
        {
          "indexed": true,
          "internalType": "address",
          "name": "owner",
          "type": "address"
        },
        {
          "indexed": true,
          "internalType": "address",
          "name": "operator",
          "type": "address"
        },
        {
          "indexed": false,
          "internalType": "bool",
          "name": "approved",
          "type": "bool"
        }
      ],
      "name": "ApprovalForAll",
      "type": "event"
    },
    {
      "anonymous": false,
      "inputs": [
        {
          "indexed": false,
          "internalType": "address",
          "name": "sender",
          "type": "address"
        },
        {
          "indexed": false,
          "internalType": "uint256",
          "name": "tokenId",
          "type": "uint256"
        }
      ],
      "name": "NewMakesickoNFTMInted",
      "type": "event"
    },
    {
      "anonymous": false,
      "inputs": [
        {
          "indexed": true,
          "internalType": "address",
          "name": "from",
          "type": "address"
        },
        {
          "indexed": true,
          "internalType": "address",
          "name": "to",
          "type": "address"
        },
        {
          "indexed": true,
          "internalType": "uint256",
          "name": "tokenId",
          "type": "uint256"
        }
      ],
      "name": "Transfer",
      "type": "event"
    },
    {
      "inputs": [
        {
          "internalType": "address",
          "name": "to",
          "type": "address"
        },
        {
          "internalType": "uint256",
          "name": "tokenId",
          "type": "uint256"
        }
      ],
      "name": "approve",
      "outputs": [],
      "stateMutability": "nonpayable",
      "type": "function"
    },
    {
      "inputs": [
        {
          "internalType": "address",
          "name": "owner",
          "type": "address"
        }
      ],
      "name": "balanceOf",
      "outputs": [
        {
          "internalType": "uint256",
          "name": "",
          "type": "uint256"
        }
      ],
      "stateMutability": "view",
      "type": "function"
    },
    {
      "inputs": [
        {
          "internalType": "uint256",
          "name": "tokenId",
          "type": "uint256"
        }
      ],
      "name": "getApproved",
      "outputs": [
        {
          "internalType": "address",
          "name": "",
          "type": "address"
        }
      ],
      "stateMutability": "view",
      "type": "function"
    },
    {
      "inputs": [
        {
          "internalType": "address",
          "name": "owner",
          "type": "address"
        },
        {
          "internalType": "address",
          "name": "operator",
          "type": "address"
        }
      ],
      "name": "isApprovedForAll",
      "outputs": [
        {
          "internalType": "bool",
          "name": "",
          "type": "bool"
        }
      ],
      "stateMutability": "view",
      "type": "function"
    },
    {
      "inputs": [
        {
          "internalType": "string",
          "name": "nftBase64",
          "type": "string"
        }
      ],
      "name": "makeMakesickoNFT",
      "outputs": [],
      "stateMutability": "nonpayable",
      "type": "function"
    },
    {
      "inputs": [],
      "name": "name",
      "outputs": [
        {
          "internalType": "string",
          "name": "",
          "type": "string"
        }
      ],
      "stateMutability": "view",
      "type": "function"
    },
    {
      "inputs": [
        {
          "internalType": "uint256",
          "name": "tokenId",
          "type": "uint256"
        }
      ],
      "name": "ownerOf",
      "outputs": [
        {
          "internalType": "address",
          "name": "",
          "type": "address"
        }
      ],
      "stateMutability": "view",
      "type": "function"
    },
    {
      "inputs": [
        {
          "internalType": "address",
          "name": "from",
          "type": "address"
        },
        {
          "internalType": "address",
          "name": "to",
          "type": "address"
        },
        {
          "internalType": "uint256",
          "name": "tokenId",
          "type": "uint256"
        }
      ],
      "name": "safeTransferFrom",
      "outputs": [],
      "stateMutability": "nonpayable",
      "type": "function"
    },
    {
      "inputs": [
        {
          "internalType": "address",
          "name": "from",
          "type": "address"
        },
        {
          "internalType": "address",
          "name": "to",
          "type": "address"
        },
        {
          "internalType": "uint256",
          "name": "tokenId",
          "type": "uint256"
        },
        {
          "internalType": "bytes",
          "name": "data",
          "type": "bytes"
        }
      ],
      "name": "safeTransferFrom",
      "outputs": [],
      "stateMutability": "nonpayable",
      "type": "function"
    },
    {
      "inputs": [
        {
          "internalType": "address",
          "name": "operator",
          "type": "address"
        },
        {
          "internalType": "bool",
          "name": "approved",
          "type": "bool"
        }
      ],
      "name": "setApprovalForAll",
      "outputs": [],
      "stateMutability": "nonpayable",
      "type": "function"
    },
    {
      "inputs": [
        {
          "internalType": "bytes4",
          "name": "interfaceId",
          "type": "bytes4"
        }
      ],
      "name": "supportsInterface",
      "outputs": [
        {
          "internalType": "bool",
          "name": "",
          "type": "bool"
        }
      ],
      "stateMutability": "view",
      "type": "function"
    },
    {
      "inputs": [],
      "name": "symbol",
      "outputs": [
        {
          "internalType": "string",
          "name": "",
          "type": "string"
        }
      ],
      "stateMutability": "view",
      "type": "function"
    },
    {
      "inputs": [
        {
          "internalType": "uint256",
          "name": "tokenId",
          "type": "uint256"
        }
      ],
      "name": "tokenURI",
      "outputs": [
        {
          "internalType": "string",
          "name": "",
          "type": "string"
        }
      ],
      "stateMutability": "view",
      "type": "function"
    },
    {
      "inputs": [
        {
          "internalType": "address",
          "name": "from",
          "type": "address"
        },
        {
          "internalType": "address",
          "name": "to",
          "type": "address"
        },
        {
          "internalType": "uint256",
          "name": "tokenId",
          "type": "uint256"
        }
      ],
      "name": "transferFrom",
      "outputs": [],
      "stateMutability": "nonpayable",
      "type": "function"
    }
  ],
  "bytecode": "0x60806040523480156200001157600080fd5b506040518060400160405280600c81526020017f4d616b657369636b6f4e465400000000000000000000000000000000000000008152506040518060400160405280600381526020017f4d4b53000000000000000000000000000000000000000000000000000000000081525081600090816200008f91906200043b565b508060019081620000a191906200043b565b505050620000ef6040518060400160405280601e81526020017f54686973206973204d616b657369636b6f204e465420636f6e74726163740000815250620000f560201b62000b0d1760201c565b620005d5565b62000195816040516024016200010c9190620005b1565b6040516020818303038152906040527f41304fac000000000000000000000000000000000000000000000000000000007bffffffffffffffffffffffffffffffffffffffffffffffffffffffff19166020820180517bffffffffffffffffffffffffffffffffffffffffffffffffffffffff83818316178352505050506200019860201b60201c565b50565b60008151905060006a636f6e736f6c652e6c6f679050602083016000808483855afa5050505050565b600081519050919050565b7f4e487b7100000000000000000000000000000000000000000000000000000000600052604160045260246000fd5b7f4e487b7100000000000000000000000000000000000000000000000000000000600052602260045260246000fd5b600060028204905060018216806200024357607f821691505b602082108103620002595762000258620001fb565b5b50919050565b60008190508160005260206000209050919050565b60006020601f8301049050919050565b600082821b905092915050565b600060088302620002c37fffffffffffffffffffffffffffffffffffffffffffffffffffffffffffffffff8262000284565b620002cf868362000284565b95508019841693508086168417925050509392505050565b6000819050919050565b6000819050919050565b60006200031c620003166200031084620002e7565b620002f1565b620002e7565b9050919050565b6000819050919050565b6200033883620002fb565b62000350620003478262000323565b84845462000291565b825550505050565b600090565b6200036762000358565b620003748184846200032d565b505050565b5b818110156200039c57620003906000826200035d565b6001810190506200037a565b5050565b601f821115620003eb57620003b5816200025f565b620003c08462000274565b81016020851015620003d0578190505b620003e8620003df8562000274565b83018262000379565b50505b505050565b600082821c905092915050565b60006200041060001984600802620003f0565b1980831691505092915050565b60006200042b8383620003fd565b9150826002028217905092915050565b6200044682620001c1565b67ffffffffffffffff811115620004625762000461620001cc565b5b6200046e82546200022a565b6200047b828285620003a0565b600060209050601f831160018114620004b357600084156200049e578287015190505b620004aa85826200041d565b8655506200051a565b601f198416620004c3866200025f565b60005b82811015620004ed57848901518255600182019150602085019450602081019050620004c6565b868310156200050d578489015162000509601f891682620003fd565b8355505b6001600288020188555050505b505050505050565b600082825260208201905092915050565b60005b838110156200055357808201518184015260208101905062000536565b60008484015250505050565b6000601f19601f8301169050919050565b60006200057d82620001c1565b62000589818562000522565b93506200059b81856020860162000533565b620005a6816200055f565b840191505092915050565b60006020820190508181036000830152620005cd818462000570565b905092915050565b612d5c80620005e56000396000f3fe608060405234801561001057600080fd5b50600436106100ea5760003560e01c806370a082311161008c578063a22cb46511610066578063a22cb4651461025b578063b88d4fde14610277578063c87b56dd14610293578063e985e9c5146102c3576100ea565b806370a08231146101f157806387ff59411461022157806395d89b411461023d576100ea565b8063095ea7b3116100c8578063095ea7b31461016d57806323b872dd1461018957806342842e0e146101a55780636352211e146101c1576100ea565b806301ffc9a7146100ef57806306fdde031461011f578063081812fc1461013d575b600080fd5b610109600480360381019061010491906119f5565b6102f3565b6040516101169190611a3d565b60405180910390f35b6101276103d5565b6040516101349190611ae8565b60405180910390f35b61015760048036038101906101529190611b40565b610467565b6040516101649190611bae565b60405180910390f35b61018760048036038101906101829190611bf5565b6104ad565b005b6101a3600480360381019061019e9190611c35565b6105c4565b005b6101bf60048036038101906101ba9190611c35565b610624565b005b6101db60048036038101906101d69190611b40565b610644565b6040516101e89190611bae565b60405180910390f35b61020b60048036038101906102069190611c88565b6106f5565b6040516102189190611cc4565b60405180910390f35b61023b60048036038101906102369190611e14565b6107ac565b005b61024561085d565b6040516102529190611ae8565b60405180910390f35b61027560048036038101906102709190611e89565b6108ef565b005b610291600480360381019061028c9190611f6a565b610905565b005b6102ad60048036038101906102a89190611b40565b610967565b6040516102ba9190611ae8565b60405180910390f35b6102dd60048036038101906102d89190611fed565b610a79565b6040516102ea9190611a3d565b60405180910390f35b60007f80ac58cd000000000000000000000000000000000000000000000000000000007bffffffffffffffffffffffffffffffffffffffffffffffffffffffff1916827bffffffffffffffffffffffffffffffffffffffffffffffffffffffff191614806103be57507f5b5e139f000000000000000000000000000000000000000000000000000000007bffffffffffffffffffffffffffffffffffffffffffffffffffffffff1916827bffffffffffffffffffffffffffffffffffffffffffffffffffffffff1916145b806103ce57506103cd82610ba6565b5b9050919050565b6060600080546103e49061205c565b80601f01602080910402602001604051908101604052809291908181526020018280546104109061205c565b801561045d5780601f106104325761010080835404028352916020019161045d565b820191906000526020600020905b81548152906001019060200180831161044057829003601f168201915b5050505050905090565b600061047282610c10565b6004600083815260200190815260200160002060009054906101000a900473ffffffffffffffffffffffffffffffffffffffff169050919050565b60006104b882610644565b90508073ffffffffffffffffffffffffffffffffffffffff168373ffffffffffffffffffffffffffffffffffffffff1603610528576040517f08c379a000000000000000000000000000000000000000000000000000000000815260040161051f906120ff565b60405180910390fd5b8073ffffffffffffffffffffffffffffffffffffffff16610547610c5b565b73ffffffffffffffffffffffffffffffffffffffff161480610576575061057581610570610c5b565b610a79565b5b6105b5576040517f08c379a00000000000000000000000000000000000000000000000000000000081526004016105ac90612191565b60405180910390fd5b6105bf8383610c63565b505050565b6105d56105cf610c5b565b82610d1c565b610614576040517f08c379a000000000000000000000000000000000000000000000000000000000815260040161060b90612223565b60405180910390fd5b61061f838383610db1565b505050565b61063f83838360405180602001604052806000815250610905565b505050565b6000806002600084815260200190815260200160002060009054906101000a900473ffffffffffffffffffffffffffffffffffffffff169050600073ffffffffffffffffffffffffffffffffffffffff168173ffffffffffffffffffffffffffffffffffffffff16036106ec576040517f08c379a00000000000000000000000000000000000000000000000000000000081526004016106e39061228f565b60405180910390fd5b80915050919050565b60008073ffffffffffffffffffffffffffffffffffffffff168273ffffffffffffffffffffffffffffffffffffffff1603610765576040517f08c379a000000000000000000000000000000000000000000000000000000000815260040161075c90612321565b60405180910390fd5b600360008373ffffffffffffffffffffffffffffffffffffffff1673ffffffffffffffffffffffffffffffffffffffff168152602001908152602001600020549050919050565b60006107b86007611017565b90506107c43382611025565b6107e7604051806060016040528060248152602001612d03602491398233611043565b6000826040516020016107fa91906123c9565b604051602081830303815290604052905061081582826110e2565b61081f600761114f565b7f4dddbde8c4ab19f8f1e54f1bbde221513f77441f73c6cc8e4e6a8e65feab23d233836040516108509291906123eb565b60405180910390a1505050565b60606001805461086c9061205c565b80601f01602080910402602001604051908101604052809291908181526020018280546108989061205c565b80156108e55780601f106108ba576101008083540402835291602001916108e5565b820191906000526020600020905b8154815290600101906020018083116108c857829003601f168201915b5050505050905090565b6109016108fa610c5b565b8383611165565b5050565b610916610910610c5b565b83610d1c565b610955576040517f08c379a000000000000000000000000000000000000000000000000000000000815260040161094c90612223565b60405180910390fd5b610961848484846112d1565b50505050565b606061097282610c10565b60006006600084815260200190815260200160002080546109929061205c565b80601f01602080910402602001604051908101604052809291908181526020018280546109be9061205c565b8015610a0b5780601f106109e057610100808354040283529160200191610a0b565b820191906000526020600020905b8154815290600101906020018083116109ee57829003601f168201915b505050505090506000610a1c61132d565b90506000815103610a31578192505050610a74565b600082511115610a66578082604051602001610a4e929190612414565b60405160208183030381529060405292505050610a74565b610a6f84611344565b925050505b919050565b6000600560008473ffffffffffffffffffffffffffffffffffffffff1673ffffffffffffffffffffffffffffffffffffffff16815260200190815260200160002060008373ffffffffffffffffffffffffffffffffffffffff1673ffffffffffffffffffffffffffffffffffffffff16815260200190815260200160002060009054906101000a900460ff16905092915050565b610ba381604051602401610b219190611ae8565b6040516020818303038152906040527f41304fac000000000000000000000000000000000000000000000000000000007bffffffffffffffffffffffffffffffffffffffffffffffffffffffff19166020820180517bffffffffffffffffffffffffffffffffffffffffffffffffffffffff83818316178352505050506113ac565b50565b60007f01ffc9a7000000000000000000000000000000000000000000000000000000007bffffffffffffffffffffffffffffffffffffffffffffffffffffffff1916827bffffffffffffffffffffffffffffffffffffffffffffffffffffffff1916149050919050565b610c19816113d5565b610c58576040517f08c379a0000000000000000000000000000000000000000000000000000000008152600401610c4f9061228f565b60405180910390fd5b50565b600033905090565b816004600083815260200190815260200160002060006101000a81548173ffffffffffffffffffffffffffffffffffffffff021916908373ffffffffffffffffffffffffffffffffffffffff160217905550808273ffffffffffffffffffffffffffffffffffffffff16610cd683610644565b73ffffffffffffffffffffffffffffffffffffffff167f8c5be1e5ebec7d5bd14f71427d1e84f3dd0314c0f7b2291e5b200ac8c7c3b92560405160405180910390a45050565b600080610d2883610644565b90508073ffffffffffffffffffffffffffffffffffffffff168473ffffffffffffffffffffffffffffffffffffffff161480610d6a5750610d698185610a79565b5b80610da857508373ffffffffffffffffffffffffffffffffffffffff16610d9084610467565b73ffffffffffffffffffffffffffffffffffffffff16145b91505092915050565b8273ffffffffffffffffffffffffffffffffffffffff16610dd182610644565b73ffffffffffffffffffffffffffffffffffffffff1614610e27576040517f08c379a0000000000000000000000000000000000000000000000000000000008152600401610e1e906124aa565b60405180910390fd5b600073ffffffffffffffffffffffffffffffffffffffff168273ffffffffffffffffffffffffffffffffffffffff1603610e96576040517f08c379a0000000000000000000000000000000000000000000000000000000008152600401610e8d9061253c565b60405180910390fd5b610ea1838383611441565b610eac600082610c63565b6001600360008573ffffffffffffffffffffffffffffffffffffffff1673ffffffffffffffffffffffffffffffffffffffff1681526020019081526020016000206000828254610efc919061258b565b925050819055506001600360008473ffffffffffffffffffffffffffffffffffffffff1673ffffffffffffffffffffffffffffffffffffffff1681526020019081526020016000206000828254610f5391906125bf565b92505081905550816002600083815260200190815260200160002060006101000a81548173ffffffffffffffffffffffffffffffffffffffff021916908373ffffffffffffffffffffffffffffffffffffffff160217905550808273ffffffffffffffffffffffffffffffffffffffff168473ffffffffffffffffffffffffffffffffffffffff167fddf252ad1be2c89b69c2b068fc378daa952ba7f163c4a11628f55a4df523b3ef60405160405180910390a4611012838383611446565b505050565b600081600001549050919050565b61103f82826040518060200160405280600081525061144b565b5050565b6110dd83838360405160240161105b939291906125f3565b6040516020818303038152906040527f1c7ec448000000000000000000000000000000000000000000000000000000007bffffffffffffffffffffffffffffffffffffffffffffffffffffffff19166020820180517bffffffffffffffffffffffffffffffffffffffffffffffffffffffff83818316178352505050506113ac565b505050565b6110eb826113d5565b61112a576040517f08c379a0000000000000000000000000000000000000000000000000000000008152600401611121906126a3565b60405180910390fd5b8060066000848152602001908152602001600020908161114a919061286f565b505050565b6001816000016000828254019250508190555050565b8173ffffffffffffffffffffffffffffffffffffffff168373ffffffffffffffffffffffffffffffffffffffff16036111d3576040517f08c379a00000000000000000000000000000000000000000000000000000000081526004016111ca9061298d565b60405180910390fd5b80600560008573ffffffffffffffffffffffffffffffffffffffff1673ffffffffffffffffffffffffffffffffffffffff16815260200190815260200160002060008473ffffffffffffffffffffffffffffffffffffffff1673ffffffffffffffffffffffffffffffffffffffff16815260200190815260200160002060006101000a81548160ff0219169083151502179055508173ffffffffffffffffffffffffffffffffffffffff168373ffffffffffffffffffffffffffffffffffffffff167f17307eab39ab6107e8899845ad3d59bd9653f200f220920489ca2b5937696c31836040516112c49190611a3d565b60405180910390a3505050565b6112dc848484610db1565b6112e8848484846114a6565b611327576040517f08c379a000000000000000000000000000000000000000000000000000000000815260040161131e90612a1f565b60405180910390fd5b50505050565b606060405180602001604052806000815250905090565b606061134f82610c10565b600061135961132d565b9050600081511161137957604051806020016040528060008152506113a4565b806113838461162d565b604051602001611394929190612414565b6040516020818303038152906040525b915050919050565b60008151905060006a636f6e736f6c652e6c6f679050602083016000808483855afa5050505050565b60008073ffffffffffffffffffffffffffffffffffffffff166002600084815260200190815260200160002060009054906101000a900473ffffffffffffffffffffffffffffffffffffffff1673ffffffffffffffffffffffffffffffffffffffff1614159050919050565b505050565b505050565b611455838361178d565b61146260008484846114a6565b6114a1576040517f08c379a000000000000000000000000000000000000000000000000000000000815260040161149890612a1f565b60405180910390fd5b505050565b60006114c78473ffffffffffffffffffffffffffffffffffffffff16611966565b15611620578373ffffffffffffffffffffffffffffffffffffffff1663150b7a026114f0610c5b565b8786866040518563ffffffff1660e01b81526004016115129493929190612a94565b6020604051808303816000875af192505050801561154e57506040513d601f19601f8201168201806040525081019061154b9190612af5565b60015b6115d0573d806000811461157e576040519150601f19603f3d011682016040523d82523d6000602084013e611583565b606091505b5060008151036115c8576040517f08c379a00000000000000000000000000000000000000000000000000000000081526004016115bf90612a1f565b60405180910390fd5b805181602001fd5b63150b7a0260e01b7bffffffffffffffffffffffffffffffffffffffffffffffffffffffff1916817bffffffffffffffffffffffffffffffffffffffffffffffffffffffff191614915050611625565b600190505b949350505050565b606060008203611674576040518060400160405280600181526020017f30000000000000000000000000000000000000000000000000000000000000008152509050611788565b600082905060005b600082146116a657808061168f90612b22565b915050600a8261169f9190612b99565b915061167c565b60008167ffffffffffffffff8111156116c2576116c1611ce9565b5b6040519080825280601f01601f1916602001820160405280156116f45781602001600182028036833780820191505090505b5090505b600085146117815760018261170d919061258b565b9150600a8561171c9190612bca565b603061172891906125bf565b60f81b81838151811061173e5761173d612bfb565b5b60200101907effffffffffffffffffffffffffffffffffffffffffffffffffffffffffffff1916908160001a905350600a8561177a9190612b99565b94506116f8565b8093505050505b919050565b600073ffffffffffffffffffffffffffffffffffffffff168273ffffffffffffffffffffffffffffffffffffffff16036117fc576040517f08c379a00000000000000000000000000000000000000000000000000000000081526004016117f390612c76565b60405180910390fd5b611805816113d5565b15611845576040517f08c379a000000000000000000000000000000000000000000000000000000000815260040161183c90612ce2565b60405180910390fd5b61185160008383611441565b6001600360008473ffffffffffffffffffffffffffffffffffffffff1673ffffffffffffffffffffffffffffffffffffffff16815260200190815260200160002060008282546118a191906125bf565b92505081905550816002600083815260200190815260200160002060006101000a81548173ffffffffffffffffffffffffffffffffffffffff021916908373ffffffffffffffffffffffffffffffffffffffff160217905550808273ffffffffffffffffffffffffffffffffffffffff16600073ffffffffffffffffffffffffffffffffffffffff167fddf252ad1be2c89b69c2b068fc378daa952ba7f163c4a11628f55a4df523b3ef60405160405180910390a461196260008383611446565b5050565b6000808273ffffffffffffffffffffffffffffffffffffffff163b119050919050565b6000604051905090565b600080fd5b600080fd5b60007fffffffff0000000000000000000000000000000000000000000000000000000082169050919050565b6119d28161199d565b81146119dd57600080fd5b50565b6000813590506119ef816119c9565b92915050565b600060208284031215611a0b57611a0a611993565b5b6000611a19848285016119e0565b91505092915050565b60008115159050919050565b611a3781611a22565b82525050565b6000602082019050611a526000830184611a2e565b92915050565b600081519050919050565b600082825260208201905092915050565b60005b83811015611a92578082015181840152602081019050611a77565b60008484015250505050565b6000601f19601f8301169050919050565b6000611aba82611a58565b611ac48185611a63565b9350611ad4818560208601611a74565b611add81611a9e565b840191505092915050565b60006020820190508181036000830152611b028184611aaf565b905092915050565b6000819050919050565b611b1d81611b0a565b8114611b2857600080fd5b50565b600081359050611b3a81611b14565b92915050565b600060208284031215611b5657611b55611993565b5b6000611b6484828501611b2b565b91505092915050565b600073ffffffffffffffffffffffffffffffffffffffff82169050919050565b6000611b9882611b6d565b9050919050565b611ba881611b8d565b82525050565b6000602082019050611bc36000830184611b9f565b92915050565b611bd281611b8d565b8114611bdd57600080fd5b50565b600081359050611bef81611bc9565b92915050565b60008060408385031215611c0c57611c0b611993565b5b6000611c1a85828601611be0565b9250506020611c2b85828601611b2b565b9150509250929050565b600080600060608486031215611c4e57611c4d611993565b5b6000611c5c86828701611be0565b9350506020611c6d86828701611be0565b9250506040611c7e86828701611b2b565b9150509250925092565b600060208284031215611c9e57611c9d611993565b5b6000611cac84828501611be0565b91505092915050565b611cbe81611b0a565b82525050565b6000602082019050611cd96000830184611cb5565b92915050565b600080fd5b600080fd5b7f4e487b7100000000000000000000000000000000000000000000000000000000600052604160045260246000fd5b611d2182611a9e565b810181811067ffffffffffffffff82111715611d4057611d3f611ce9565b5b80604052505050565b6000611d53611989565b9050611d5f8282611d18565b919050565b600067ffffffffffffffff821115611d7f57611d7e611ce9565b5b611d8882611a9e565b9050602081019050919050565b82818337600083830152505050565b6000611db7611db284611d64565b611d49565b905082815260208101848484011115611dd357611dd2611ce4565b5b611dde848285611d95565b509392505050565b600082601f830112611dfb57611dfa611cdf565b5b8135611e0b848260208601611da4565b91505092915050565b600060208284031215611e2a57611e29611993565b5b600082013567ffffffffffffffff811115611e4857611e47611998565b5b611e5484828501611de6565b91505092915050565b611e6681611a22565b8114611e7157600080fd5b50565b600081359050611e8381611e5d565b92915050565b60008060408385031215611ea057611e9f611993565b5b6000611eae85828601611be0565b9250506020611ebf85828601611e74565b9150509250929050565b600067ffffffffffffffff821115611ee457611ee3611ce9565b5b611eed82611a9e565b9050602081019050919050565b6000611f0d611f0884611ec9565b611d49565b905082815260208101848484011115611f2957611f28611ce4565b5b611f34848285611d95565b509392505050565b600082601f830112611f5157611f50611cdf565b5b8135611f61848260208601611efa565b91505092915050565b60008060008060808587031215611f8457611f83611993565b5b6000611f9287828801611be0565b9450506020611fa387828801611be0565b9350506040611fb487828801611b2b565b925050606085013567ffffffffffffffff811115611fd557611fd4611998565b5b611fe187828801611f3c565b91505092959194509250565b6000806040838503121561200457612003611993565b5b600061201285828601611be0565b925050602061202385828601611be0565b9150509250929050565b7f4e487b7100000000000000000000000000000000000000000000000000000000600052602260045260246000fd5b6000600282049050600182168061207457607f821691505b6020821081036120875761208661202d565b5b50919050565b7f4552433732313a20617070726f76616c20746f2063757272656e74206f776e6560008201527f7200000000000000000000000000000000000000000000000000000000000000602082015250565b60006120e9602183611a63565b91506120f48261208d565b604082019050919050565b60006020820190508181036000830152612118816120dc565b9050919050565b7f4552433732313a20617070726f76652063616c6c6572206973206e6f7420746f60008201527f6b656e206f776e6572206e6f7220617070726f76656420666f7220616c6c0000602082015250565b600061217b603e83611a63565b91506121868261211f565b604082019050919050565b600060208201905081810360008301526121aa8161216e565b9050919050565b7f4552433732313a2063616c6c6572206973206e6f7420746f6b656e206f776e6560008201527f72206e6f7220617070726f766564000000000000000000000000000000000000602082015250565b600061220d602e83611a63565b9150612218826121b1565b604082019050919050565b6000602082019050818103600083015261223c81612200565b9050919050565b7f4552433732313a20696e76616c696420746f6b656e2049440000000000000000600082015250565b6000612279601883611a63565b915061228482612243565b602082019050919050565b600060208201905081810360008301526122a88161226c565b9050919050565b7f4552433732313a2061646472657373207a65726f206973206e6f74206120766160008201527f6c6964206f776e65720000000000000000000000000000000000000000000000602082015250565b600061230b602983611a63565b9150612316826122af565b604082019050919050565b6000602082019050818103600083015261233a816122fe565b9050919050565b600081905092915050565b7f646174613a6170706c69636174696f6e2f6a736f6e3b6261736536342c000000600082015250565b6000612382601d83612341565b915061238d8261234c565b601d82019050919050565b60006123a382611a58565b6123ad8185612341565b93506123bd818560208601611a74565b80840191505092915050565b60006123d482612375565b91506123e08284612398565b915081905092915050565b60006040820190506124006000830185611b9f565b61240d6020830184611cb5565b9392505050565b60006124208285612398565b915061242c8284612398565b91508190509392505050565b7f4552433732313a207472616e736665722066726f6d20696e636f72726563742060008201527f6f776e6572000000000000000000000000000000000000000000000000000000602082015250565b6000612494602583611a63565b915061249f82612438565b604082019050919050565b600060208201905081810360008301526124c381612487565b9050919050565b7f4552433732313a207472616e7366657220746f20746865207a65726f2061646460008201527f7265737300000000000000000000000000000000000000000000000000000000602082015250565b6000612526602483611a63565b9150612531826124ca565b604082019050919050565b6000602082019050818103600083015261255581612519565b9050919050565b7f4e487b7100000000000000000000000000000000000000000000000000000000600052601160045260246000fd5b600061259682611b0a565b91506125a183611b0a565b92508282039050818111156125b9576125b861255c565b5b92915050565b60006125ca82611b0a565b91506125d583611b0a565b92508282019050808211156125ed576125ec61255c565b5b92915050565b6000606082019050818103600083015261260d8186611aaf565b905061261c6020830185611cb5565b6126296040830184611b9f565b949350505050565b7f45524337323155524953746f726167653a2055524920736574206f66206e6f6e60008201527f6578697374656e7420746f6b656e000000000000000000000000000000000000602082015250565b600061268d602e83611a63565b915061269882612631565b604082019050919050565b600060208201905081810360008301526126bc81612680565b9050919050565b60008190508160005260206000209050919050565b60006020601f8301049050919050565b600082821b905092915050565b6000600883026127257fffffffffffffffffffffffffffffffffffffffffffffffffffffffffffffffff826126e8565b61272f86836126e8565b95508019841693508086168417925050509392505050565b6000819050919050565b600061276c61276761276284611b0a565b612747565b611b0a565b9050919050565b6000819050919050565b61278683612751565b61279a61279282612773565b8484546126f5565b825550505050565b600090565b6127af6127a2565b6127ba81848461277d565b505050565b5b818110156127de576127d36000826127a7565b6001810190506127c0565b5050565b601f821115612823576127f4816126c3565b6127fd846126d8565b8101602085101561280c578190505b612820612818856126d8565b8301826127bf565b50505b505050565b600082821c905092915050565b600061284660001984600802612828565b1980831691505092915050565b600061285f8383612835565b9150826002028217905092915050565b61287882611a58565b67ffffffffffffffff81111561289157612890611ce9565b5b61289b825461205c565b6128a68282856127e2565b600060209050601f8311600181146128d957600084156128c7578287015190505b6128d18582612853565b865550612939565b601f1984166128e7866126c3565b60005b8281101561290f578489015182556001820191506020850194506020810190506128ea565b8683101561292c5784890151612928601f891682612835565b8355505b6001600288020188555050505b505050505050565b7f4552433732313a20617070726f766520746f2063616c6c657200000000000000600082015250565b6000612977601983611a63565b915061298282612941565b602082019050919050565b600060208201905081810360008301526129a68161296a565b9050919050565b7f4552433732313a207472616e7366657220746f206e6f6e20455243373231526560008201527f63656976657220696d706c656d656e7465720000000000000000000000000000602082015250565b6000612a09603283611a63565b9150612a14826129ad565b604082019050919050565b60006020820190508181036000830152612a38816129fc565b9050919050565b600081519050919050565b600082825260208201905092915050565b6000612a6682612a3f565b612a708185612a4a565b9350612a80818560208601611a74565b612a8981611a9e565b840191505092915050565b6000608082019050612aa96000830187611b9f565b612ab66020830186611b9f565b612ac36040830185611cb5565b8181036060830152612ad58184612a5b565b905095945050505050565b600081519050612aef816119c9565b92915050565b600060208284031215612b0b57612b0a611993565b5b6000612b1984828501612ae0565b91505092915050565b6000612b2d82611b0a565b91507fffffffffffffffffffffffffffffffffffffffffffffffffffffffffffffffff8203612b5f57612b5e61255c565b5b600182019050919050565b7f4e487b7100000000000000000000000000000000000000000000000000000000600052601260045260246000fd5b6000612ba482611b0a565b9150612baf83611b0a565b925082612bbf57612bbe612b6a565b5b828204905092915050565b6000612bd582611b0a565b9150612be083611b0a565b925082612bf057612bef612b6a565b5b828206905092915050565b7f4e487b7100000000000000000000000000000000000000000000000000000000600052603260045260246000fd5b7f4552433732313a206d696e7420746f20746865207a65726f2061646472657373600082015250565b6000612c60602083611a63565b9150612c6b82612c2a565b602082019050919050565b60006020820190508181036000830152612c8f81612c53565b9050919050565b7f4552433732313a20746f6b656e20616c7265616479206d696e74656400000000600082015250565b6000612ccc601c83611a63565b9150612cd782612c96565b602082019050919050565b60006020820190508181036000830152612cfb81612cbf565b905091905056fe416e204e465420772f20494420257320686173206265656e206d696e746420746f202573a2646970667358221220f329d727e169c3f0160163cf9010abd05223fa343967f915b0949b802f1061aa64736f6c63430008110033",
  "linkReferences": {},
  "deployedLinkReferences": {}
}